:020000040800F2
:10000000D8060020ED01000881220008050800083C
:100010007D220008490400085D2B00080000000054
:100020000000000000000000000000000928000897
:100030004D04000800000000832200085529000834
:10004000070200080702000807020008070200086C
:10005000070200080702000807020008070200085C
:10006000070200080702000807020008070200084C
:10007000070200080702000807020008070200083C
:10008000070200080702000807020008070200082C
:10009000070200080702000807020008070200081C
:1000A000070200080702000807020008070200080C
:1000B00007020008070200080702000807020008FC
:1000C00007020008070200080702000807020008EC
:1000D00007020008070200080702000807020008DC
:1000E00007020008070200080702000800000000DD
:1000F0000000000000000000000000000000000000
:1001000000000000000000000702000807020008CD
:10011000070200080702000807020008070200089B
:10012000070200080702000807020008070200088B
:10013000070200080702000807020008070200087B
:10014000070200080702000807020008070200086B
:1001500000F002F800F03AF80AA090E8000C82449F
:100160008344AAF10107DA4501D100F02FF8AFF27C
:10017000090EBAE80F0013F0010F18BFFB1A43F085
:1001800001031847FC3B00001C3C0000103A24BF50
:1001900078C878C1FAD8520724BF30C830C144BFEC
:1001A00004680C607047000000230024002500262E
:1001B000103A28BF78C1FBD8520728BF30C148BFCA
:1001C0000B6070471FB51FBD10B510BD00F0CFF814
:1001D0001146FFF7F7FF02F085FD00F0EDF803B4DC
:1001E000FFF7F2FF03BC00F0F5F800000948804774
:1001F00009480047FEE7FEE7FEE7FEE7FEE7FEE709
:10020000FEE7FEE7FEE7FEE704480549054A064B20
:10021000704700007D29000851010008D800002027
:10022000D8060020D8020020D8020020032A40F27D
:10023000308010F0030C00F0158011F8013BBCF188
:10024000020F624498BF11F801CB00F8013B38BFA0
:1002500011F8013BA2F1040298BF00F801CB38BFAE
:1002600000F8013B11F0030300F04F80083AC0F0A2
:10027000088051F8043B083A51F804CBA0E8081074
:10028000F5E7121D5CBF51F8043B40F8043BAFF3A7
:100290000080D20724BF11F8013B11F801CB48BF01
:1002A00011F8012B24BF00F8013B00F801CB48BF37
:1002B00000F8012B70474FF0000200B5134694463A
:1002C0009646203922BFA0E80C50A0E80C50B1F1AE
:1002D0002001BFF4F7AF090728BFA0E80C5048BFC2
:1002E0000CC05DF804EB890028BF40F8042B08BF60
:1002F000704748BF20F8022B11F0804F18BF00F85C
:10030000012B704770477047704710B5203AC0F016
:100310000B80B1E81850203AA0E81850B1E8185006
:10032000A0E81850BFF4F5AF5FEA027C24BFB1E843
:100330001850A0E8185044BF18C918C0BDE81040B4
:100340005FEA827C24BF51F8043B40F8043B08BFBD
:100350007047D20728BF31F8023B48BF11F8012B84
:1003600028BF20F8023B48BF00F8012B70477546B4
:1003700000F02CF8AE4605006946534620F0070011
:10038000854618B020B5FFF73FFFBDE820404FF08D
:1003900000064FF000074FF000084FF0000B21F06F
:1003A0000701AC46ACE8C009ACE8C009ACE8C0093C
:1003B000ACE8C0098D46704710B50446AFF3008025
:1003C0002046BDE81040FFF70ABF00000048704714
:1003D0007400002001491820ABBEFEE72600020091
:1003E0007047000000B585B00121C80301F07CFF13
:1003F0000021144802F0D0F90020ADF800004FF4BD
:100400008270ADF802000020ADF80400ADF80600DF
:10041000ADF808004FF40070ADF80A002820ADF8E0
:100420000C000020ADF80E000720ADF81000694662
:10043000044802F0CBF90121024802F0ADF905B001
:1004400000BD0000003C004000BFFEE7704701B562
:10045000002008E00C2100BF0A1EA1F10103D9B25F
:10046000FAD1411C88B200998842F3D308BDF8B58F
:1004700004460D464FF47840A11E8AB20D39009013
:1004800088B22B46294600F046FA4FF4784004F132
:100490000F018AB2A11C009088B22B46294600F0B9
:1004A0003AFA4FF478400090A81E83B20D3881B21A
:1004B0002246204600F02FFA4FF47840009005F1D4
:1004C0000F0083B2A81C81B22246204600F023FA16
:1004D0004BF6F04005F10F06B3B2E61FB2B205F1DC
:1004E0000F06B1B2A4F10F060090B0B200F013FAFB
:1004F0004BF6F04005F10F06B3B2A4F10F06B2B20D
:10050000EE1DB1B2A4F10F060090B0B200F003FAF4
:100510004BF6F040A5F10F06B3B2E61FB2B2A5F15B
:100520000F06B1B2A4F10F060090B0B200F0F3F9DB
:100530004BF6F040A5F10F06B3B2A4F10F06B2B22C
:10054000EE1FB1B2A4F10F060090B0B200F0E3F9D3
:100550004BF6F04005F10F06B3B204F10F06B2B24C
:1005600005F10F06B1B2E61D0090B0B200F0D3F96C
:100570004BF6F04005F10F06B3B204F10F06B2B22C
:10058000EE1DB1B204F10F060090B0B200F0C3F955
:100590004BF6F040A5F10F06B3B204F10F06B2B26C
:1005A000A5F10F06B1B2E61D0090B0B200F0B3F9AC
:1005B0004BF6F040EE1FB3B204F10F06B2B2A5F154
:1005C0000F06B1B204F10F060090B0B200F0A3F92B
:1005D000F8BD2DE9F0410246002500260020002349
:1005E0000024002791F803C00CF00F0591F803C018
:1005F0000CF0100CBCF1000F03D091F802C04CEAD3
:10060000050591F800C0BCF1000F31D0146800203E
:100610002BE04FF0010C0CFA00F3B1F800C00CEA2B
:1006200003069E4220D183004FF00F0C0CFA03F713
:10063000BC4305FA03FC4CEA040491F803C0BCF186
:10064000280F06D14FF0010C0CFA00FCC2F814C0C0
:100650000AE091F803C0BCF1480F05D14FF0010C3E
:100660000CFA00FCC2F810C0401C0828D1D314605A
:10067000B1F800C0BCF1FF0F34DD546800202EE05B
:1006800000F1080C4FF0010808FA0CF3B1F800C0B3
:100690000CEA03069E4221D183004FF00F0C0CFAA6
:1006A00003F7BC4305FA03FC4CEA040491F803C0C9
:1006B000BCF1280F05D100F1080C08FA0CF8C2F8BB
:1006C000148091F803C0BCF1480F07D100F1080C69
:1006D0004FF0010808FA0CF8C2F81080401C0828F6
:1006E000CED35460BDE8F081F0B50A460023002463
:1006F0000021002500F00046B6F1004F02D11D4E4A
:10070000F16901E01B4E7168C0F3034583B200F448
:100710004016B6F5401F08D121F07061154E76687D
:1007200026F07066134F7E6012E000F48016B6F576
:10073000801F06D1032606FA05F4A14341F070613B
:1007400006E0460D360103FA06F6B14341F070614A
:1007500022B1460D360103FA06F6314300F0004699
:10076000B6F1004F02D1034EF16101E0014E71601C
:10077000F0BD0000000001400246002093680B40DD
:100780000BB1012000E0002070474161704701611A
:1007900070472DE9F84305460E4614469846DDF8A5
:1007A000209000BF14F8017B43463A463146284664
:1007B000CDF8009001F066FDB5F59C7F03DA05F1F8
:1007C000080085B208E0E02E04DA002506F11000EA
:1007D00086B201E00025002620780028E2D1BDE89D
:1007E000F883000070B505460C46A4F12000044AC9
:1007F00002EB001110222846FFF718FD70BD000023
:100800009037000800BFFEE770B505460024214878
:1008100000780A2803D01F4800780B2820D1002137
:10082000022001F015FD0021032001F011FD00213F
:10083000042001F00DFDEF21052001F009FD00214C
:10084000062001F005FD0021072001F001FD012136
:10085000082001F0FDFC3F21092001F0F9FC03E034
:100860000021084601F08AFC4FF480400A490860E4
:10087000222001F0D1FC002403E0284601F0B2FC64
:10088000641CB4F5963FF8D34FF480400249091F29
:10089000086070BD000000201414014008B501215B
:1008A000642001F031FD4FF6FF70ADF80000032029
:1008B0008DF8020010208DF8030069460F48FFF7FD
:1008C00088FE4FF47840ADF8000003208DF8020058
:1008D00010208DF8030069460948FFF77AFE0120D1
:1008E000ADF8000003208DF8020010208DF8030001
:1008F00069460448FFF76DFE08BD0000001801407E
:10090000001401400008014000BF011EA0F10102D7
:10091000D0B2FAD170472DE9F05F04460D469146FA
:100920009A46DDF828B04C4503DD0FFA89F7A14659
:10093000BCB2554503DD0FFA8AF7AA46BDB2A9EB52
:1009400004000FFA80F8AAEB050006B2B8F1000F18
:100950000BD100BF5A462946204601F02FFC681CE7
:1009600085B2AA45F6DABDE8F09F56B900BF5A46EF
:100970002946204601F022FC601C84B2A145F6DA2B
:10098000F1E7B04521DDC8EB460007B215E05A4655
:100990002946204601F012FC601C84B2002F08DDBD
:1009A000681C85B27000022101FB1800384407B2B0
:1009B00003E0022000FB067007B24C45E7D15A461F
:1009C0002946204601F0FAFB20E0C6EB480007B2BA
:1009D00015E05A462946204601F0F0FB681C85B216
:1009E000002F08DD601C84B27000022101FB18009A
:1009F000384407B203E0022000FB067007B25545F9
:100A0000E7D15A462946204601F0D8FB00BFAAE7A5
:100A100010B5FFF743FF4FF40061FE48FFF7B5FE46
:100A2000642002F0D9F84FF40061FA48FFF7AFFEF6
:100A30000121F948FFF7ABFE4FF4967002F0CCF8B5
:100A4000002001F085FB044649F22530844202D0A3
:100A5000C01C84427ED10120F049087047F6F001A5
:100A6000E52001F0F5FB4FF48071012001F0F0FB6F
:100A70004FF4E061022001F0EBFB41F23001032072
:100A800001F0E6FB0021042001F0E2FB40F2072127
:100A9000082001F0DDFB0021092001F0D9FB002135
:100AA0000A2001F0D5FB00210C2001F0D1FB002130
:100AB0000D2001F0CDFB00210F2001F0C9FB00212A
:100AC000102001F0C5FB0721112001F0C1FB00211E
:100AD000122001F0BDFB0021132001F0B9FB012120
:100AE000072001F0B5FBC82002F076F841F2900132
:100AF000102001F0ADFB40F22721112001F0A8FBEE
:100B0000322002F069F81F21122001F0A1FB3220EF
:100B100002F062F84FF4A851132001F099FB27214D
:100B2000292001F095FB0D212B2001F091FB3220B3
:100B300002F052F80021202001F08AFB0021212040
:100B400001F086FB0021302001F082FB40F20771AA
:100B5000312000E06BE001F07BFB40F207313220F6
:100B600001F076FB4FF40071352001F071FB082194
:100B7000362001F06DFB0421372001F069FB0021D4
:100B8000382001F065FB40F20771392001F060FB6D
:100B900002213C2001F05CFB41F604513D2001F0B4
:100BA00057FB0021502001F053FBEF21512001F0B1
:100BB0004FFB0021522001F04BFB40F23F1153202C
:100BC00001F046FB4FF42741602001F041FB012179
:100BD000612001F03DFB00216A2001F039FB00217A
:100BE000802001F035FB0021812001F031FB002144
:100BF000822001F02DFB0021832001F029FB002140
:100C0000842001F025FB0021852001F021FB10212B
:100C1000902001F01DFB4FF4C061922001F018FB01
:100C200040F23311072001F013FB01F064BA49F2DE
:100C30002030844202D0B4F5134F7DD10020774993
:100C400008700021084601F003FB4FF48071012079
:100C500001F0FEFA4FF4E061022001F0F9FA41F2EE
:100C60001801032001F0F4FA0021042001F0F0FA49
:100C700040F20221082001F0EBFA0021092001F0E6
:100C8000E7FA00210A2001F0E3FA01210C2001F02B
:100C9000DFFA00210D2001F0DBFA00210F2001F026
:100CA000D7FA642001F098FF40F20111072001F00B
:100CB000CFFA642001F090FF4FF48651102001F02C
:100CC000C7FA0721112001F0C3FA4FF488711220EE
:100CD00001F0BEFA4FF43061132001F0B9FA00219F
:100CE000292001F0B5FA44F210012B2001F0B0FAEE
:100CF0000021502001F0ACFAEF21512001F0A8FAB8
:100D00000021522001F0A4FA40F23F11532001F0DB
:100D10009FFA4FF41C51602001F09AFA01216120E2
:100D200001F096FA00216A2001F092FA0021802059
:100D300001F08EFA002100E031E0812001F088FA14
:100D40000021822001F084FA0021832001F080FA42
:100D50000021842001F07CFA0021852001F078FA3E
:100D60001021902001F074FA0021922001F070FA15
:100D70000121932001F06CFA4FF48871952001F065
:100D800067FA0021972001F063FA0021982001F012
:100D90005FFA40F27311072001F05AFA45E749F271
:100DA000313084427DD103201C49087041F2140186
:100DB000E72001F04DFA4FF48071012001F048FA6C
:100DC0004FF40071022001F043FA41F23001032098
:100DD00001F03EFA40F20221082001F039FA002128
:100DE000092001F035FA00210A2001F031FA002132
:100DF0000C2001F02DFA00210D2001F029FA00212C
:100E00000F2001F025FA0021102001F021FA07211E
:100E1000112005E0001401400008014000000020FE
:100E200001F016FA0021122001F012FA002113201D
:100E300001F00EFAC82001F0CFFE41F290611020BF
:100E400001F006FA40F22721112001F001FA3220C8
:100E500001F0C2FE0C21122001F0FAF9322001F05B
:100E6000BBFE4FF40061132001F0F2F9112129209B
:100E700001F0EEF90B212B2001F0EAF9322001F00C
:100E8000ABFE0021202001F0E3F90021212001F038
:100E9000DFF90021302001F0DBF94FF483713120BC
:100EA00000E07BE001F0D4F90021322001F0D0F91C
:100EB0004FF40171352001F0CBF941F20A6136207F
:100EC00001F0C6F940F20771372001F0C1F94FF483
:100ED0008371382001F0BCF940F20771392001F02C
:100EE000B7F940F202413C2001F0B2F940F60F415F
:100EF0003D2001F0ADF90021502001F0A9F9EF21CA
:100F0000512001F0A5F90021522001F0A1F940F291
:100F10003F11532001F09CF94FF41C51602001F067
:100F200097F90121612001F093F900216A2001F075
:100F30008FF90021802001F08BF90021812001F040
:100F400087F90021822001F083F90021832001F03C
:100F50007FF90021842001F07BF90021852001F038
:100F600077F91021902001F073F94FF4C0619220BD
:100F700001F06EF92121072001F06AF9322001F019
:100F80002BFE6121072001F063F9322001F024FEDD
:100F900040F23311072001F05BF946E649F61910DB
:100FA00084427DD10D20FE4908700621282001F0E1
:100FB0004FF90121002001F04BF90021102001F030
:100FC00047F947F2EF21012001F042F94FF4C061E7
:100FD000022001F03DF946F63821032001F038F9EE
:100FE00046F67401112001F033F900210F2001F0C1
:100FF0002FF945F208310B2001F02AF903210C20CA
:1010000001F026F90A210D2001F022F94FF43851A0
:101010000E2001F01DF9BE211E2001F019F94FF438
:101020000041252001F014F94FF4F041262001F091
:101030000FF97821272001F00BF900214E2001F053
:1010400007F900214F2001F003F940F6D9011220E1
:1010500001F0FEF80021302001F0FAF84FF482711F
:10106000312001F0F5F84FF48071322001F0F0F8F2
:1010700040F20531332001F0EBF840F20551342005
:1010800001F0E6F840F20531352001F0E1F840F2D8
:101090000771362001F0DCF84FF44071372000E092
:1010A00010E001F0D5F84FF490513A2001F0D0F85B
:1010B0004FF400613B2001F0CBF83321072001F011
:1010C000C7F8B2E541F20550844203D040F2055022
:1010D00084427DD10920B24908700021072001F027
:1010E000B7F8322001F078FD4FF48E71122001F034
:1010F000AFF80121A42001F0ABF80F21082001F086
:10110000A7F808210A2001F0A3F808210D2001F01A
:101110009FF840F20771302001F09AF80721312042
:1011200001F096F840F20361322001F091F84FF49B
:10113000E061332001F08CF840F20221342001F00C
:1011400087F80221352001F083F841F60F7136202F
:1011500001F07EF840F20771372001F079F80021A4
:10116000382001F075F80021392001F071F840F2C3
:1011700007713A2001F06CF800213B2001F068F87B
:1011800007213C2001F064F800213D2001F060F8C7
:10119000322001F021FD0121072001F059F8012141
:1011A000172001F055F8322001F016FD4FF4BD5123
:1011B000102001F04DF840F21721112001F048F8FD
:1011C0004FF48F71122001F043F84FF4706100E08A
:1011D00095E0132001F03CF800212A2001F038F8B6
:1011E0000A21292001F034F84FF49F71122001F0F8
:1011F0002FF80021502001F02BF8EF21512001F0B1
:1012000027F80021522001F023F840F23F1153202B
:1012100001F01EF84FF41C51602001F019F8012173
:10122000612001F015F800216A2001F011F8002179
:10123000802001F00DF80021812001F009F8002143
:10124000822001F005F80021832001F001F800213F
:10125000842000F0FDFF0021852000F0F9FF13211C
:10126000902000F0F5FF4FF44071922000F0F0FF65
:101270000521932000F0ECFF0021952000F0E8FF0D
:101280000021972000F0E4FF0021982000F0E0FF0B
:101290004FF48071012000F0DBFF4FF4E061022089
:1012A00000F0D6FF41F23001032000F0D1FF002111
:1012B000042000F0CDFF00210C2000F0C9FF002128
:1012C0000F2000F0C5FF0021202000F0C1FF002109
:1012D000212000F0BDFF2121072000F0B9FFC82028
:1012E00001F07AFC6121072000F0B2FFC82001F074
:1012F00073FC40F27311072000F0AAFF95E448F652
:10130000891084427ED105202549087001210020E2
:1013100000F09EFF322001F05FFC4AF6A40103209A
:1013200000F096FF322001F057FC00210C2000F065
:101330008FFF322001F050FC40F60C010D2000F030
:1013400087FF322001F048FC4FF42C510E2000F0B2
:101350007FFF322001F040FCB0211E2000F078FF1A
:10136000322001F039FC42F63F31012000F070FFDD
:10137000322001F031FC4FF4C061022000F068FF20
:10138000322001F029FC0021102000F061FF322002
:1013900001F022FC46F27001112000F059FF01E03B
:1013A00000000020322001F017FC0021052000F091
:1013B0004FFF322001F010FC0021062000F048FF12
:1013C000322001F009FC4EF61C71162000F040FF9F
:1013D000322001F001FC0321172000F039FF3220F8
:1013E00001F0FAFB40F23311072000F031FF322008
:1013F00001F0F2FB00210B2000F02AFF322001F067
:10140000EBFB00E0BCE000210F2000F021FF3220C8
:1014100001F0E2FB0021412000F01AFF322001F030
:10142000DBFB0021422000F013FF322001F0D4FB4F
:101430000021482000F00CFF322001F0CDFB40F2EB
:101440003F11492000F004FF322001F0C5FB0021CC
:101450004A2000F0FDFE322001F0BEFB00214B20AF
:1014600000F0F6FE322001F0B7FB4FF46F4144204C
:1014700000F0EEFE322001F0AFFB0021452000F02D
:10148000E7FE322001F0A8FB40F23F11462000F0B9
:10149000DFFE322001F0A0FB40F20771302000F0A7
:1014A000D7FE322001F098FB4FF40171312000F09B
:1014B000CFFE322001F090FB4FF40171322000F09A
:1014C000C7FE322001F088FB40F20251332000F0C9
:1014D000BFFE322001F080FB40F20751342000F0C3
:1014E000B7FE322001F078FB4FF40171352000F097
:1014F000AFFE322001F070FB4FF40171362000F096
:10150000A7FE322001F068FB40F20251372000F0C4
:101510009FFE322001F060FB40F202313A2000F0E1
:1015200097FE322001F058FB40F202313B2000F0E0
:101530008FFE322001F050FB0021232000F088FEB6
:10154000322001F049FB0021242000F081FE3220EE
:1015500001F042FB4FF40041252000F079FE3220DB
:1015600001F03AFB00214F2000F072FE00214E20D6
:1015700000F06EFE46F26801112000F069FE0DE4F5
:1015800048F6991084427CD10420FD490870062158
:10159000282000F05DFE0121002000F059FE4AF6EF
:1015A000A461032000F054FE04210C2000F050FE42
:1015B0000C210D2000F04CFE4FF420510E2000F0C5
:1015C00047FEB5211E2000F043FE43F63F310120C7
:1015D00000F03EFE4FF4C061022000F039FE002111
:1015E000102000F035FE46F63001112000F030FEEC
:1015F0000021052000F02CFE0021062000F028FE2E
:101600004EF61C71162000F023FE3321072000F057
:101610001FFE00210B2000F01BFE00210F2000F018
:1016200017FE0021412000F013FE0021422000F0AF
:101630000FFE0021482000F00BFE40F23F11492030
:1016400000F006FE00214A2000F002FE00214B209F
:1016500000F0FEFD4FF46F41442000F0F9FD002141
:10166000452000F0F5FD40F23F11462000F0F0FD6E
:1016700000214E2000F0ECFD00214F2000F0E8FD9D
:1016800000E04DE040F20771302000F0E1FD40F253
:101690000221312000F0DCFD4FF40171322000F016
:1016A000D7FD40F20251332000F0D2FD40F2075145
:1016B000342000F0CDFD4FF40171352000F0C8FD5D
:1016C0004FF40171362000F0C3FD40F20251372083
:1016D00000F0BEFD40F202313A2000F0B9FD40F2C8
:1016E00002313B2000F0B4FD0021232000F0B0FDCA
:1016F0000021242000F0ACFD4FF40041252000F033
:10170000A7FD4FF4E041262000F0A2FD4BF2EB01D3
:10171000202000F09DFD7C21272000F099FD3CE475
:1017200045F2084084427CD1082095490870410167
:10173000012000F08DFD4FF4E061022000F088FDF3
:1017400041F23001032000F083FD0021042000F06D
:101750007FFD40F20721082000F07AFD00210920DA
:1017600000F076FD00210A2000F072FD00210C201F
:1017700000F06EFD00210D2000F06AFD00210F2019
:1017800000F066FD322001F027FA40F20111072037
:1017900000F05EFD322001F01FFA41F2B06110202E
:1017A00000F056FD0121112000F052FD012117200B
:1017B00000F04EFD4FF49C71122000F049FD4FF4F3
:1017C0000061132000F044FD0921292000F040FDB4
:1017D00009212A2000F03CFD0021A42000F038FD62
:1017E0000021502000F034FDEF21512000F030FDA9
:1017F0000021522000F02CFD40F23F11532000F058
:1018000027FD4FF41C51602000F022FD03216120D0
:1018100000F01EFD00216A2000F01AFD002180204A
:1018200000E02CE000F014FD0021812000F010FD0C
:101830000021822000F00CFD0021832000F008FD33
:101840000021842000F004FD0021852000F000FD2F
:101850001321902000F0FCFC0021922000F0F8FC05
:101860000321932000F0F4FC4FF48871952000F0E0
:10187000EFFC40F27311072000F0EAFC21E444F28F
:10188000315084427BD107203D490870012100205E
:1018900000F0DEFC4FF4C561102000F0D9FC0621F9
:1018A000122000F0D5FC40F63221132000F0D0FCCD
:1018B0004021112000F0CCFC5021152000F0C8FC84
:1018C0001621122000F0C4FC322001F085F945F207
:1018D0006061102000F0BCFC322001F07DF942F67E
:1018E0004E21132000F0B4FC4FF48071012000F071
:1018F000AFFC4FF44071022000F0AAFC41F230012D
:10190000032000F0A5FC40F20221082000F0A0FC1A
:1019100000210A2000F09CFC0021302000F098FCFF
:1019200040F20241312000F093FC4FF483713220E9
:1019300000F08EFC4FF4E061332000F089FC4FF49E
:101940008271342000F084FC40F20131352000F037
:101950007FFC40F20771362000F07AFC40F205313E
:10196000372000F075FC4FF40271382000F070FC55
:1019700040F60B71392000F06BFC322002E033E0BE
:101980000000002001F028F90221412000F060FC55
:101990004FF41C51602000F05BFC0121612000F03D
:1019A00057FC40F21911902000F052FC4FF4857161
:1019B000922000F04DFC0421932000F049FC4FF4EC
:1019C0008071A02000F044FC322001F005F940F2C3
:1019D0003311072000F03CFC322001F0FDF800211B
:1019E000A02000F035FC86E344F2355084427CD1DF
:1019F0000C20FE4908703021152000F029FC102130
:101A00009A2000F025FC2021112000F021FC43F257
:101A10002841102000F01CFC0221122000F018FCCC
:101A200041F23801132000F013FC282001F0D4F813
:101A30001221084600F00CFC282001F0CDF843F2FA
:101A40002041102000F004FC43F24501132000F077
:101A5000FFFB462001F0C0F80021302000F0F8FB29
:101A600040F20241312000F0F3FB40F20731322016
:101A700000F0EEFB4FF44171332000F0E9FB04214C
:101A8000342000F0E5FB40F20141352000F0E0FB9E
:101A900040F20771362000F0DBFB40F205313720C1
:101AA00000F0D6FB4FF4C261382000F0D1FB4FF4B8
:101AB000C261392000F0CCFB4FF48071012000F0AE
:101AC000C7FB4FF44071022000F0C2FB41F230012D
:101AD000032000F0BDFB40F60801082000F0B8FB31
:101AE00008210A2000F0B4FB00E036E04FF41C515E
:101AF000602000F0ADFB0121612000F0A9FB4FF454
:101B00009F71902000F0A4FB4FF48071922000F0B0
:101B10009FFB4FF48071932000F09AFB4FF44051EB
:101B2000A02000F095FB1021A32000F091FB0121E3
:101B3000072000F08DFB2121072000F089FB2321E5
:101B4000072000F085FB3321072000F081FB40F2E5
:101B50003311072000F07CFBCDE2472C7DD10A2019
:101B6000A24908700021EA2000F072FB2021EB203E
:101B700000F06EFB0C21EC2000F06AFBC421ED208C
:101B800000F066FB4021E82000F062FB3821E920EC
:101B900000F05EFB0121F12000F05AFB1021F22041
:101BA00000F056FBA321272000F052FB012140202A
:101BB00000F04EFB0021412000F04AFB00214220B2
:101BC00000F046FB1021432000F042FB0E21442090
:101BD00000F03EFB2421452000F03AFB0421462082
:101BE00000F036FB5021472000F032FB0221482054
:101BF00000F02EFB1321492000F02AFB19214A2076
:101C000000F026FB19214B2000F022FB16214C206E
:101C100000F01EFB1B21502000F01AFB3121512047
:101C200000F016FB2F21522000F012FB3F21532021
:101C300000F00EFB3F21542000F00AFB3E2155200E
:101C400000F006FB2F21562000F002FB7B215720DD
:101C500000F0FEFA0921582000E065E000F0F8FAF3
:101C60000621592000F0F4FA06215A2000F0F0FA7B
:101C70000C215B2000F0ECFA1D215C2000F0E8FA5A
:101C8000CC215D2000F0E4FA18211B2000F0E0FADE
:101C900001211A2000F0DCFA1521242000F0D8FAE6
:101CA0005021252000F0D4FA8B21232000F0D0FA17
:101CB0003621182000F0CCFA0121192000F0C8FAD2
:101CC0000021012000F0C4FA88211F2000F0C0FA92
:101CD000322000F081FF80211F2000F0B9FA32206D
:101CE00000F07AFF90211F2000F0B2FA322000F0BD
:101CF00073FFD0211F2000F0ABFA322000F06CFF00
:101D00000521172000F0A4FA0021362000F0A0FAE7
:101D10003821282000F09CFA322000F05DFF3C21A1
:101D2000282000F095FAE6E147F2837084427DD1E5
:101D300006202E4908700121FF2000F089FA0821B1
:101D4000F32000F085FA4FF48071012000F080FA52
:101D50004FF4E061022000F07BFA41F230010320F1
:101D600000F076FA40F20231082000F071FA40F2F9
:101D70000721082000F06CFA0021092000F068FA21
:101D800000210A2000F064FA0021102000F060FA1F
:101D90000521112000F05CFA0021122000F058FA11
:101DA0000021132000F054FA322000F015FF41F218
:101DB000B021102000F04CFA322000F00DFF072176
:101DC000112000F045FA322000F006FF8B2112208E
:101DD00000F03EFA322000F0FFFE4FF4B85113201D
:101DE00000F036FA322000F0F7FE01E0000000209B
:101DF0002221292000F02CFA0021302000F028FABE
:101E000040F20771312000F023FA40F205513220F0
:101E100000F01EFA40F20711352000F019FA0821EF
:101E2000362000F015FA0021372000E040E000F0F5
:101E30000FFA40F20221382000F00AFA4FF48371C1
:101E4000392000F005FA40F202213C2000F000FAAF
:101E50004FF481613D2000F0FBF9322000F0BCFE20
:101E60000021502000F0F4F9EF21512000F0F0F9AA
:101E70000021522000F0ECF940F23F11532000F015
:101E8000E7F94FF42741602000F0E2F901216120D9
:101E900000F0DEF93321902000F0DAF90B212B203D
:101EA00000F0D6F940F23311072000F0D1F922E119
:101EB000672000F04DF90446472CF8D10B209049DB
:101EC00008700821422000F0C3F9B421462000F038
:101ED000BFF94321472000F0BBF91321482000F04F
:101EE000B7F94721492000F0B3F914214A2000F046
:101EF000AFF936214B2000F0ABF903214C2000F064
:101F0000A7F946214D2000F0A3F905214E2000F04D
:101F10009FF910214F2000F09BF90821502000F07C
:101F200097F90A21512000F093F90021022000F0D6
:101F30008FF90021032000F08BF90021042000F02C
:101F400087F9EF21052000F083F90021062000F039
:101F50007FF90021072000F07BF90121082000F023
:101F600077F93F21092000F073F90A2000F034FED0
:101F70000621012000F06CF9C821162000F068F954
:101F80009521232000F064F99521242000F060F9C8
:101F9000FF21252000F05CF90221272000F058F9EC
:101FA0000221282000F054F90221292000F050F9E4
:101FB00002212A2000F04CF902212C2000F048F9DF
:101FC00002212D2000F044F901213A2000F040F9CF
:101FD00001213B2000F03CF9F0213C2000F038F9D1
:101FE00000213D2000F034F9142000F0F5FD3821E7
:101FF000352000F02DF97821362000F029F938211C
:102000003E2000F025F90F21402000F021F9F021B9
:10201000412000F01DF90021382000F019F9492174
:10202000192000F015F90A21932000F011F90A2077
:1020300000F0D2FD2021084600F00AF903211D20FE
:1020400000F006F900211E2000F002F909211F20EE
:1020500000F0FEF85321442000F0FAF8102145204A
:1020600000F0F6F80A2000F0B7FD04211C2000F073
:10207000EFF8142000F0B0FD8021432000F0E8F8D4
:10208000052000F0A9FD0A211B2000F0E1F828201E
:1020900000F0A2FD12211B2000F0DAF8282000F049
:1020A0009BFD7F21902000F0D3F80421262000F032
:1020B000CFF8282000F090FD2421262000F0C8F859
:1020C0002C21262000F0C4F8282000F085FD0821EE
:1020D000702000F0BDF83C21262000F0B9F8022164
:1020E000572000F0B5F80021552000F0B1F800218C
:1020F000572000F0ADF8322000F06EFD10BD00005A
:10210000000000204FF400410F4A1160C910116017
:102110004900121D11604FF044310C4A1160121F2A
:1021200011600A49091D096888B20849091D096832
:1021300088B24FF03331121D1160121F116051141B
:10214000014A11607047000010140140041801405A
:1021500070B504464FF4804007490860204600F0FF
:102160005BF8FFF7CFFF05464FF480400249091F97
:102170000860284670BD00001414014070B5044684
:102180000D462E462546C6F1EF0084B20A48007877
:10219000052808D121464E2000F05AF829464F2044
:1021A00000F056F807E02146202000F051F82946BB
:1021B000212000F04DF870BD0000002070B50646EB
:1021C0000C461546B6F5A07F01DAF02C00DB70BD99
:1021D00021463046FFF7D2FF2946222000F038F88A
:1021E00000BFF4E700B503464FF40040084908601B
:1021F0000020FEF789FB074803600020FEF784FB00
:102200004FF480500249091D0860091F086000BD95
:10221000101401400C18014000B503464FF4004073
:10222000094908608010091F08600020FEF76CFB58
:10223000064803600020FEF767FB4FF48050024918
:102240000860091F086000BD141401400C1801400B
:1022500070B505460C464FF4804007490860284693
:10226000FFF7DAFF2046FFF7BDFF4FF48040024939
:10227000091F086070BD00001414014000BFFEE794
:10228000704770472DE9FF5F06460F469046994616
:10229000DDF838B041466846FEF7A4FA00241FE096
:1022A0001DF804A0002517E0C5F107004AFA00F068
:1022B00000F0010038B13A1991B2721990B24A4651
:1022C000FFF77CFF06E03A1991B2721990B25A46B4
:1022D000FFF774FF681C85B2082DE5DB601C84B233
:1022E000102CDDDBBDE8FF9F29B1064AD26902430D
:1022F000044BDA6104E0034AD2698243014BDA619C
:10230000704700000010024029B1064A926902435A
:10231000044B9A6104E0034A92698243014B9A613B
:1023200070470000001002402DE9F041002100221A
:10233000002500230026002400278C46DFF860815A
:10234000D8F8048008F00C0121B1042907D008292D
:1023500059D109E0DFF84C81C0F8008058E0DFF87F
:102360004881C0F8008053E0DFF83481D8F8048059
:1023700008F47012DFF82881D8F8048008F480355A
:10238000920C0D2A01D0921C00E0062235B9DFF82C
:102390001C8102FB08F8C0F8008033E0DFF8008100
:1023A000D8F82C8008F48036DFF8F480D8F82C8038
:1023B00008F00F0808F1010446B9DFF8EC80B8FB1B
:1023C000F4F808FB02F8C0F800801BE0DFF8D080CA
:1023D000D8F82C80C8F3031808F10107DFF8C08093
:1023E000D8F82C80C8F3032808F1020CDFF8B88075
:1023F000B8FBF7F808FB0CF8B8FBF4F808FB02F898
:10240000C0F8008004E0DFF89C80C0F8008000BFC6
:1024100000BFDFF88C80D8F8048008F0F0010909CB
:10242000DFF88C8018F80130D0F8008028FA03F823
:10243000C0F80480DFF86880D8F8048008F4E06110
:10244000090ADFF86C8018F80130D0F8048028FA07
:1024500003F8C0F80880DFF84880D8F8048008F452
:102460006051C90ADFF8488018F80130D0F80480BC
:1024700028FA03F8C0F80C80DFF82480D8F804802C
:1024800008F44041890BDFF82C8018F80130D0F8AF
:102490000C80B8FBF3F8C0F81080BDE8F0810000B4
:1024A0000010024000127A0040787D0100093D00D2
:1024B0001C0000202C00002070B500BF02211B482A
:1024C00000F076F90028F9D00021184800F07CF9D6
:1024D00000BF0121154800F06BF90028F9D013481E
:1024E00000F06FF905464FF6FF7000EA0524012061
:1024F000FDF7ADFF00BF02210C4800F059F900289C
:10250000F9D00021094800F05FF900BF0121074818
:1025100000F04EF90028F9D0044800F052F90546C1
:102520002C43E410C4F30B04204670BD003C004073
:10253000F0B597B0002748216846FDF7BCFE00BF04
:1025400015A916A800F06CFA16984DF8270009A8EE
:10255000159940F82710781CC7B204217248FEF77D
:102560000BF908B9092FEBDB092F7DD1DDE900015B
:10257000084402990844032190FBF1F01290DDE930
:102580000301084405990844032190FBF1F01390DE
:10259000DDE90601084408990844032190FBF1F0A5
:1025A0001490DDE91201441ADDE91301451A12996C
:1025B0001498461A002C01DD204600E060420446D3
:1025C000002D01DD284600E068420546002E01DDB1
:1025D000304600E070420646022C06DD022D04DD86
:1025E000022E02DD002017B0F0BDAC4215DAA64283
:1025F00009DA149A1299881800EBD071C1F34F01CF
:102600004A4A11801EE0DDE91212881800EBD071F1
:10261000C1F34F01454A118014E0AE4209DA149A21
:102620001299881800EBD071C1F34F013F4A118015
:1026300008E0DDE91312881800EBD071C1F34F01F7
:102640003A4A1180DDE9091001440B98084403213E
:1026500090FBF1F01290DDE90C1001440E98084453
:10266000032190FBF1F000E05BE01390DDE90F1037
:10267000014411980844032190FBF1F01490DDE926
:102680001201441ADDE91301451A12991498461AE9
:10269000002C01DD204600E060420446002D01DDF3
:1026A000284600E068420546002E01DD304600E085
:1026B00070420646022C05DD022D03DD022E01DDEF
:1026C000002090E7AC4215DAA64209DA149A129972
:1026D000881800EBD071C1F34F01144A51801EE0FD
:1026E000DDE91212881800EBD071C1F34F010F4AD7
:1026F000518014E0AE4209DA149A1299881800EB5E
:10270000D071C1F34F01094A518008E0DDE913128D
:10271000881800EBD071C1F34F01044A518003487F
:1027200061E700205FE7000000140140180000206E
:1027300010B501210A48FEF728F80120FDF787FEB1
:10274000902000F00DFA0120FDF781FEFFF7B4FEA6
:10275000044601210248FEF71AF8204610BD000089
:102760000010014010B501210A48FEF70EF80120C3
:10277000FDF76DFED02000F0F3F90120FDF767FEB4
:10278000FFF79AFE044601210248FEF700F82046B2
:1027900010BD00000010014021B1028842F040024B
:1027A000028004E002884FF6BF731A40028070472F
:1027B0000246002013890B400BB1012000E00020ED
:1027C00070470146888970478181704710B50022A3
:1027D000028802F441520B884C8823438C8823439F
:1027E000CC8823430C8923434C8923438C8923437E
:1027F000CC8923431A430280838B4FF2FF7423401A
:1028000083830B8A038210BD704710B500F002F875
:1028100010BD00000CB50020019000903F480068FA
:1028200040F480303D49086000BF3C48006800F437
:10283000003000900198401C0190009818B9019850
:10284000B0F5A06FF1D13548006800F4003010B148
:102850000120009001E000200090009801285CD148
:102860002F48006840F010002D49086008460068B5
:1028700020F0030008600846006840F0020008608D
:102880002648406825494860084640684860084630
:10289000406840F4806048600846C06A21490840AA
:1028A0001E49C8620846C06A1F4908431B49C862DE
:1028B0000846006840F08060086000BF1748006864
:1028C00000F000600028F9D01448406820F47C1023
:1028D000124948600846406840F4E81048600846DD
:1028E000006840F08070086000BF0C48006800F08D
:1028F00000700028F9D00948406820F0030007491B
:1029000048600846406840F00200486000BF034845
:10291000406800F00C000828F9D10CBD00100240FE
:102920000020024000F0FEFF44060100042808D108
:102930004FF0E021096941F004014FF0E0221161FC
:1029400007E04FF0E021096921F004014FF0E02297
:1029500011617047704740B14FF0E021096941F0C3
:1029600002014FF0E022116107E04FF0E021096918
:1029700021F002014FF0E0221161704710B51648B6
:10298000006840F001001449086008464068134997
:1029900008401149486008460068114908400E493E
:1029A00008600846006820F48020086008464068F7
:1029B00020F4FE0048600846006820F0A05008603F
:1029C0004FF47F0088600020C862FFF71EFF4FF0C1
:1029D00000600449086010BD001002400000FFF0D4
:1029E000FFFFF6FE08ED00E070B504460D461F221D
:1029F00029462046FFF7E2FB611C88B21F222946C8
:102A0000FFF7DCFB681C81B21F222046FFF7D6FBD4
:102A10006A1C91B2621C90B21F22FFF7CFFB70BDFF
:102A20002DE9F04104460D46FFF782FE06460120DF
:102A3000FDF70DFDFFF796FE074626602F60BDE807
:102A4000F081000008B501213120FFF75DFC012174
:102A50001848FDF749FE4FF4E050ADF8000018208B
:102A60008DF8030003208DF8020069461248FDF737
:102A7000B0FD0120ADF8000010208DF80300032008
:102A80008DF8020069460C48FDF7A3FD0420ADF85F
:102A9000000048208DF8030003208DF802006946ED
:102AA0000648FDF796FD01210348FDF770FEFDF78E
:102AB00099FC08BD001120000010014000140140E5
:102AC00038B5002429E047F6FF70FDF79DFE4FF66C
:102AD000FF704FF4784316A2782100902C20FDF768
:102AE00058FE642000F078F8194A02EB84025188FD
:102AF000174A32F82400FDF7BAFC00BFFFF718FDB3
:102B00000546002DFAD02888124921F8240068884B
:102B100001EB84014880601CC4B2032CD3DB0E4A55
:102B20000C490B4800F0FAF80020FDF76DFE38BDA7
:102B3000546F7563682063726F7373686169722084
:102B4000746F2063616C69627261746500000000DB
:102B50000C000020680000203000002000BFFEE7CD
:102B600010B5044600BF02210948FFF721FE0028E6
:102B7000F9D021460648FFF727FE00BF012104488F
:102B8000FFF716FE0028F9D00148FFF71AFE10BD26
:102B9000003C004000B585B06846FFF7C5FB6FF00C
:102BA0000400FFF7C3FE0020FFF7D5FE0749019898
:102BB000B0FBF1F0064908704FF4FA510198B0FBF0
:102BC000F1F00449088005B000BD000000127A0051
:102BD0000200002004000020002109E0002201E0A2
:102BE000531C9AB240F275439A42F9DB4B1C99B2DE
:102BF0008142F3DB70472DE9F04F8BB08246894666
:102C000014464FF0010B00221346D4E90C5128461C
:102C100000F042FB60D0B9F8020000F0BDFB0546B1
:102C2000D4E902733A4600F0CBFBCDE90201B9F8D2
:102C3000000000F0B1FB0746D4E900532A4600F03B
:102C4000BFFBCDE90001DDE9022300F019F9CDE970
:102C50000401D4E904532A4600F012F9CDE9060133
:102C6000D4E90C532A4600F0BFF9CDE9080100F081
:102C70004FFBAAF80000B9F8020000F08DFB0746F0
:102C8000D4E908532A4600F09BFBCDE90201B9F8CC
:102C9000000000F081FB0746D4E906532A4600F005
:102CA0008FFBCDE90001DDE9022300F0E9F8CDE971
:102CB0000401D4E90A532A4600F0E2F8CDE90601FE
:102CC000D4E90C532A4600F08FF9CDE9080100F051
:102CD0001FFBAAF8020001E04FF0000B58460BB0B2
:102CE000BDE8F08FFFF7AEFEFFF754FFFDF790FE53
:102CF000FFF7E6FE0CE0FFF71BFC0446054A214601
:102D00000548FFF778FF044A51881088FFF76CFEEA
:102D1000F1E7000030000020080000202DE9F04716
:102D200005460C4616464FF0010921882289891A6A
:102D3000E38862899A1A5143A2882389D31A678843
:102D40006289BA1A03FB121000F00FFBC6E90C01EE
:102D500000221346D6E90C71384600F09DFA02D1E4
:102D60004FF0000989E029882A89891AE388628955
:102D70009A1A5143AA882B89D31A67886289BA1A8A
:102D800003FB121000F0F1FAC6E900012188228944
:102D9000891AAA882B89D21A51432A88D21AA38861
:102DA0002789DB1B02FB131000F0DFFAC6E90201E2
:102DB0002189AA885143A2882B8902FB13116288BA
:102DC000514322885A4323892F8803FB1723E28823
:102DD00003FB0212A18879432388AF8803FB1713F2
:102DE000618903FB012000F0C0FAC6E904016A888A
:102DF0006989511AE38862899A1A5143EB886A8972
:102E00009B1A67886289BA1A03FB121000F0ADFAA8
:102E1000C6E9060121882289891AEB886A899A1AEB
:102E200051436B886A899A1AA3882789DB1B02FBA6
:102E3000131000F09AFAC6E908012189EA88514383
:102E4000A3886A8903FB12116288514322886B8927
:102E50005A4323896F8803FB1723E28803FB02137D
:102E6000A18879432788EA8807FB1212618902FB4F
:102E7000013000F07AFAC6E90A014846BDE8F08759
:102E800010B591EA030F48BF83F0004300F19E8321
:102E9000841A71EB030C05D2121943EB0C03001BCF
:102EA00061EB0C01DFF824E14FEA1154A4EB135C51
:102EB0001EEA430F18BF9EEA445F73D023EA0E0355
:102EC000DCF1200E21EA045143F4801332D322FABC
:102ED0000CFE10EB0E0023FA0CFE41EB0E01CCF1C0
:102EE000200E03FA0EFE10EB0E0051F10001B1F5B9
:102EF000801FCCF1200E32D201EB045112FA0EF2F7
:102F0000BDE8104058BF7047401C38BF5FEA42021E
:102F100018BF7047002814BF20F0010041F10001E4
:102F20004FEA410313F5001F38BF7047A1F1C041BC
:102F300000F03EBB012A43EB0302ACF1200CDCF1B4
:102F40001F0E32BF4FF0000E23FA0CF310EB0300FC
:102F500041EB0451B4EB115FD0D0A1EB045101F56A
:102F6000801149085FEA300001EB04510ED350F1A3
:102F7000000038BF12FA0EFE08D1BDE81040C9E7C4
:102F8000401C38BF5FEA4202CAD1C3E7BDE8104027
:102F90004FEA410313F5001F38BF7047A1F1C0414C
:102FA00000F006BB9EEA445F08D011EA5E0FBDE860
:102FB000104004BF01F0004100207047BDE8104000
:102FC00070B500F0A7FA00BF64FBBE3E0000E0FF52
:102FD000491058BFC1F140415B1058BFC3F1404395
:102FE0008B42EFF3008070472DE9C04130B4DFF829
:102FF000A0C23CEA111418BF3CEA131400F0EC80A4
:1030000081EA03051CEA111444EAD57418BF1CEACE
:10301000131500F0C780A4EB05044FF0004545EA06
:10302000C12145EAC32341EA505143EA525304F116
:103030007F74994204F500344FEAC0204FEAC2225F
:1030400008BF904200F09C804FEA13650FF24016D3
:10305000765D4FEA134506FB05F7C7F1807706FB5F
:1030600007F74FEAD737A7FB03687642C8F58038E1
:10307000A7FB06CE38BFA8F1010807FB08E64FF012
:10308000000EA6FB028CE6FB03CEDCF1000CCEF1B9
:10309000004E38BFAEF1010EA6FB0C584FF00007F2
:1030A0004FF00005E6FB0E87A1FB08C6A0FB07CE8C
:1030B00016EB0E0645F10005E1FB076515F1E04E44
:1030C0007EBFA4F580345FEA46066D4116F18007A5
:1030D00045F100054FEA17274FEA066647EA0567FC
:1030E000A6F1DE46B6F1805F4FEA15251FD93846B6
:1030F00024F0010C05EBC471BCF1FE6F01EB0C1167
:1031000002D8F0BCBDE8008124425CBF01F5801EFE
:103110009EEAC47F02D4F0BCBDE80081244238D4CA
:10312000F0BCA1F1C041BDE8004100F041BA4FEA56
:10313000D22242EA43524FEAD323A7FB02864FEA48
:10314000D02040EA415007FB03661EEA0E0F4FEA0B
:10315000D12105FB026658BFA6EB0056B6EB005620
:103160004FEA520E4EEAC37E18EB0E0E56EB530E8C
:10317000BDD518EB02085E417F1C55F10005B6E78E
:103180004FF480154FF000074FF000064FF0000895
:10319000ADE7F0BC4FF0000001F1C04101F000418B
:1031A000BDE8008111EA0C1F0CEA131500D00CE0F9
:1031B00013EA0C1F00F025804FF00000F0BC81EAFC
:1031C000030101F00041BDE80081F0BCBDE8004111
:1031D00081EA030100F0ECB9F0BCBDE8004170B534
:1031E00000F098F9097EFC3E00F007B881EA03017F
:1031F0004FF0000001F00041704781EA030100F048
:10320000D7B9F0BCBDE800414FF00000214970473C
:10321000FFFDFBF9F7F5F4F2F0EEEDEBE9E8E6E49B
:10322000E3E1E0DEDDDBDAD8D7D5D4D3D1D0CFCD22
:10323000CCCBCAC8C7C6C5C4C2C1C0BFBEBDBCBB5B
:10324000BAB9B8B7B6B5B4B3B2B1B0AFAEADACAB56
:10325000AAA9A8A8A7A6A5A4A3A3A2A1A09F9F9E30
:103260009D9C9C9B9A9999989797969595949393E2
:10327000929191908F8F8E8E8D8C8C8B8B8A898979
:1032800088888787868585848483838282818180FC
:103290000000FF070000F87F51EA030C17D41CF56B
:1032A000801F58BFBCF5801F00F10680994218BFEF
:1032B000704708BF9042704707D711F5801F58BF6D
:1032C00013F5801F19D499427047894270471CF545
:1032D000801F08D5BCF5801FF7D58B4218BF7047FB
:1032E00008BF824270474FF4001C1CEB410F38BFEF
:1032F0001CEB430F01D28B42704770B500F00AF906
:10330000922449004FF000514FF08053FFF760BE08
:103310004FEA1153A3F58063D3F11E03A8BFD3F185
:10332000200C08DB4FF0004242EAC12252EA505220
:1033300032FA03F0704709420BD4102BC4BF0020AF
:10334000704703F5787CBCF1FF3F05D04FF0FF30AC
:1033500070474FF00000704770B500F0DBF800BF19
:103360004992248000207047F0E710F0004248BFE7
:103370004042B0FA80F310FA03F10AD0C3F11D0302
:1033800003F580634FEA415002EB035202EBD12177
:1033900070474FF000007047B0FA80F310FA03F165
:1033A0000AD0C3F11D0303F580634FEA41504FEA91
:1033B000035202EBD12170474FF00000704700002C
:1033C000DFF848C170B51CEA111E1EBF1CEA1315B8
:1033D0009EEA0C0F95EA0C0F00F06F8081EA03045F
:1033E00023EA4C134EEAD47E21EA4C1141F48011B9
:1033F00043F48013AE44A1FB024CA0FB0365AEF185
:103400007F7E361955EB0C05A1FB034C4CF10003F4
:10341000A0FB021C16EB0C06654153F100030942A8
:1034200018BF46F0010613F4007F0BD14FEA0331B9
:103430004FEA0530340341EA155140EA16506FF067
:1034400003020AE04FEAC3214FEAC520F40241EA31
:10345000555140EA56506FF0020202EB2E4201EB4A
:10346000025585EACE710AD05FEA440C18BF24F0F9
:10347000004450F1000041F1000120EAD47040F214
:10348000FE7C624500D270BDA84214BF4FF080445C
:103490004FF04044002E08BF0024BEF1806FA8BF4B
:1034A000A1F1C041BDE8704080F282804FF0000081
:1034B00001F1C04101F0004170479EEA0C0F0CEA97
:1034C000131518BF95EA0C0F06D04FF0000081EAE3
:1034D000030E0EF0004170BD00F01CF88900013EA3
:1034E00000F007B800F009B84FEA430C5FEA5C5CF3
:1034F00008D081EA030100F05BB84FEA410C5FEAB3
:103500005C5CF6D14FF00000014970470000FF07F6
:103510000000F87F0EF1020E2EF0030E5EF8046B31
:10352000364205D4012A43EB030515F5001F12D8D6
:10353000012841EB010C1CF5001F0CD80ED14FEAFD
:10354000D17C15F5001F0CEB4C0C0CF1020C08BFE4
:103550004CEBD37C04E04FF0080C01E04FEAD37C45
:103560000CEB4C0526FA05F606F00706B6F1040C3E
:1035700006D20EEB860CBDE870404CF0010C6047A3
:10358000DFE80CF0090B02024FF000414FF00000A1
:10359000A1F5002170BD19461046012851EB010428
:1035A00018BFD4F5001484BF002001F0004170BDA5
:1035B0000808A0F500114FEA3101704710B591EAF3
:1035C000030F48BF83F000433FF562AC841A71EBF0
:1035D000030C07D212198CF0004C43EB0C03001BB8
:1035E00061EB0C01DFF8A4E14FEA1154A4EB135C8A
:1035F0001EEA430F18BF9EEA445F00F0B08023EA42
:103600006E03524221EA0451C3EB6E0338BF5B1EC6
:10361000DCF1200E25D322FA0CFE10EB0E0043FA4B
:103620000CFE41EB0E01CCF1200E03FA0EFE10EB66
:103630000E0051F10001CCF1200E29D412FA0EF245
:1036400001EB0451BDE8104058BF7047401C1CBF3F
:10365000B2F1004F704700280CBF491C20F0010058
:10366000704712EB020E43EB030218BF4FF0010E3E
:103670004EEA4202ACF1200CDCF11E0E54D943FAA2
:103680000CFE10EB0E0051F1FF31CCF11E0ED5D522
:103690000EF1010E12FA0EFE404141EB010101EB69
:1036A000445C5FEA5C5C10D910EBDE7001EB045106
:1036B00038BFBEF1004FBDE8104018BF704700286A
:1036C0000CBF491C20F00100704730D24FEAD42CC7
:1036D00011F5001124F400641BD0B1FA81F20B3A09
:1036E000A41AA41ED2F12003914030FA03F3194327
:1036F000904001EBCC71002C01EB0451BDE810406F
:10370000A8BF704701F1C0414FF0000001F0004137
:103710007047B0FA80F310FA03F100D110BDE41A3B
:10372000173C4805C90AE4E701EB045110BD4910F4
:1037300001EB0451BDE810404FEA300002E04FF0C9
:10374000000170474A0008BF0042F8D0B2F5001FE0
:1037500028BF704701F000414FF0000070479EEA1B
:10376000445F07D011EA5E0FBDE8104004BF00219E
:1037700000207047BDE8104070B5FFF7CBFE00BFDA
:1037800040DFF63E83F00041104670470000E0FF46
:103790000000000000000000000000000000000029
:1037A000000000183C3C3C181800181800000000ED
:1037B00000000066666600000000000000000000D7
:1037C00000000036367F3636367F36360000000081
:1037D0000018183C666030180C06663C181800008B
:1037E000000070D8DA760C18306E5B1B0E000000FB
:1037F000000000386C6C38606F66663B00000000AB
:103800000000001818180000000000000000000070
:103810000000000C1818303030303018180C000040
:103820000000003018180C0C0C0C0C18183000009C
:103830000000000000361C7F1C3600000000000065
:10384000000000000018187E18180000000000009A
:10385000000000000000000000001C1C0C1800000C
:10386000000000000000007E0000000000000000DA
:10387000000000000000000000001C1C0000000010
:1038800000000006060C0C181830306060000000C4
:103890000000001E333737333B3B331E000000006F
:1038A0000000000C1C7C0C0C0C0C0C0C000000002C
:1038B0000000003C6666060C1830607E00000000C8
:1038C0000000003C6666061C0666663C00000000C0
:1038D0000000003030363636667F060600000000F5
:1038E0000000007E6060607C06060C78000000002E
:1038F0000000001C18307C666666663C0000000014
:103900000000007E060C0C1818303030000000005B
:103910000000003C6666763C6E66663C0000000077
:103920000000003C666666663E0C18380000000029
:1039300000000000001C1C0000001C1C0000000017
:1039400000000000001C1C0000001C1C0C180000E3
:10395000000000060C18306030180C060000000053
:103960000000000000007E007E000000000000005B
:103970000000006030180C060C18306000000000D9
:103980000000003C66660C181800181800000000C3
:103990000000007EC3C3CFDBDBCFC07F0000000090
:1039A000000000183C6666667E66666600000000E1
:1039B0000000007C6666667C6666667C000000002F
:1039C0000000003C666660606066663C00000000C7
:1039D000000000786C66666666666C780000000021
:1039E0000000007E6060607C6060607E000000001F
:1039F0000000007E6060607C60606060000000002D
:103A00000000003C666660606E66663E0000000076
:103A1000000000666666667E6666666600000000F8
:103A20000000003C181818181818183C0000000076
:103A300000000006060606060666663C000000005A
:103A400000000066666C6C786C6C666600000000B6
:103A500000000060606060606060607E00000000E8
:103A60000000006363776B6B6B63636300000000AF
:103A70000000006363737B6F676363630000000093
:103A80000000003C666666666666663C00000000F4
:103A90000000007C6666667C60606060000000007C
:103AA0000000003C666666666666663C0C060000C2
:103AB0000000007C6666667C6C666666000000003E
:103AC0000000003C666030180C06663C00000000F8
:103AD0000000007E181818181818181800000000A8
:103AE00000000066666666666666663C000000006A
:103AF000000000666666666666663C1800000000A8
:103B00000000006363636B6B6B36363600000000A9
:103B100000000066663418182C6666660000000017
:103B2000000000666666663C181818180000000061
:103B30000000007E06060C183060607E0000000069
:103B40000000003C303030303030303030303C001D
:103B50000000006060303018180C0C0606000000F1
:103B60000000003C0C0C0C0C0C0C0C0C0C0C3C0065
:103B700000183C660000000000000000000000008B
:103B80000000000000000000000000000000FF0036
:103B900000000018181800000000000000000000DD
:103BA00000000000003C06063E66663E0000000085
:103BB00000000060607C66666666667C000000004F
:103BC00000000000003C66606060663C0000000091
:103BD00000000006063E66666666663E000000005F
:103BE00000000000003C66667E60603C0000000053
:103BF0000000001E3030307E3030303000000000D9
:103C000000000000003E66666666663E06067C00B2
:103C100000000060607C6666666666660000000004
:103C200000001818007818181818187E00000000F6
:103C300000000C0C003C0C0C0C0C0C0C0C0C780058
:103C4000000000606066666C786C666600000000CC
:103C500000000078181818181818187E00000000C6
:103C600000000000007E6B6B6B6B6B63000000005C
:103C700000000000007C6666666666660000000064
:103C800000000000003C66666666663C00000000BE
:103C900000000000007C66666666667C606060000E
:103CA00000000000003E66666666663E0606060088
:103CB0000000000000666E70606060600000000040
:103CC00000000000003E60603C06067C0000000032
:103CD00000000030307E30303030301E00000000F8
:103CE00000000000006666666666663E0000000032
:103CF000000000000066666666663C180000000072
:103D00000000000000636B6B6B6B36360000000038
:103D1000000000000066663C183C6666000000007B
:103D200000000000006666666666663C0C18F000DF
:103D300000000000007E060C1830607E00000000CD
:103D40000000000C1818183060301818180C00000B
:103D50000000001818181818181818181818180043
:103D6000000000301818180C060C18181830000045
:103D700000000071DB8E0000000000000000000069
:103D8000A03D000800000020300000008C01000869
:103D9000D03D000830000020A8060000A80100085F
:103DA0000000000000000000000000001E002D00C8
:103DB000D2005A00A000D200000000000000000065
:103DC00001020304010203040607080902040608AD
:04000005080001519D
:00000001FF
